:1018000019C033C032C031C030C02FC02EC02DC06F
:101810002CC02BC02AC029C028C027C026C025C084
:1018200024C023C022C021C020C01FC01EC01DC0B4
:101830001CC01BC011241FBECFEFD4E0DEBFCDBF44
:1018400011E0A0E0B1E0E2E2FDE102C005900D92FE
:10185000A230B107D9F722E0A2E0B1E001C01D92A9
:10186000AD30B207E1F7ADD05AC2CACF9091C000F7
:1018700095FFFCCF8093C6000895CF93982F829553
:101880008F708A3010F0895A01C0805D9F709A3045
:1018900010F0C7E501C0C0E3C90FE8DF8C2FCF917E
:1018A000E5CFCF92DF92EF92FF92C12CD12C76013F
:1018B0008091C00087FD13C08FEFC81AD80AE80ACC
:1018C000F80A81E2C81681EAD80687E0E806F10442
:1018D00078F3E0910201F09103010995E9CF80913D
:1018E000C600FF90EF90DF90CF900895CF93D9DF9F
:1018F000C82FBCDFC13610F089EA03C0C03318F02E
:1019000080ED8C0F01C08C2FCF910895CF93EEDF27
:10191000C82FECDF90E1C99F800D1124CF9108956D
:10192000CF93C82FCC2319F0BCDFC150FBCFCF9190
:101930000895CF93C82FB5DF803239F484E196DF64
:101940008C2F94DF80E1CF9191CF809104018F5F44
:1019500080930401853031F4E0910201F09103019C
:10196000CF910994CF9108959CDF803221F484E1D6
:101970007DDF80E17BCF809104018F5F8093040144
:10198000853029F4E0910201F09103010994089552
:101990008823B1F02D9A2FEF30E792E021503040AC
:1019A0009040E1F700C000002D982FEF30E792E063
:1019B000215030409040E1F700C000008150E8CF56
:1019C00008950000E0E0F0E0E49189E18093C40034
:1019D0001092C50088E18093C10086E08093C20028
:1019E0005098589A259A80E0D3DFFF24F39459DF6A
:1019F0008033A9F18133A1F454DF803209F081C131
:101A000084E134DF81E432DF86E530DF82E52EDFFA
:101A100080E22CDF89E42ADF83E528DF80E56AC1E4
:101A2000803429F43EDF8638D0F03BDF18C08134A3
:101A300091F437DF803811F482E003C0813819F463
:101A400081E077DFD4CF823811F480E1FACF883992
:101A500081F583E0F6CF823421F484E161DF84DF15
:101A6000C6CF853411F485E0F9CF982F9D7F90354E
:101A7000B1F38135A1F3853539F413DF8093060185
:101A800010DF80930701EBCF8635A9F40ADF80339E
:101A900071F407DF06DF182F04DF111102C08EE199
:101AA000D0CF113011F483E9CCCF8AE0CACF83E0E4
:101AB00037DF80E0C6CF843609F0C1C0F2DE809304
:101AC0000902EFDE8093080280910C028E7F8093E2
:101AD0000C02E7DE853429F480910C02816080934A
:101AE0000C0208E011E02091080230910902C801BF
:101AF000885091408217930728F4D3DEF801819330
:101B00008F01F1CFCEDE803209F0FBC080910C0254
:101B1000209106013091070180FF29C0220F331F59
:101B20003093070120930601E8E0F1E020910802DC
:101B300030910902CF01885091408217930708F035
:101B40007CC0F999FECF809106019091070192BD6A
:101B500081BD819180BDFA9AF99A80910601909198
:101B6000070101969093070180930601DFCF8091D2
:101B70000701880F880B8F2180930B02220F331FE0
:101B800030930701209306018091080280FF09C06D
:101B90008091080290910902019690930902809326
:101BA0000802F894F999FECF1127E0910601F0910F
:101BB0000701C8E0D1E0809108029091090210303D
:101BC00091F40091570001700130D9F303E00093C4
:101BD0005700E8950091570001700130D9F301E1F9
:101BE00000935700E89509901990009157000170F3
:101BF0000130D9F301E000935700E89513951032B6
:101C000098F011270091570001700130D9F305E0D9
:101C100000935700E8950091570001700130D9F307
:101C200001E100935700E8953296029709F0C7CF7B
:101C3000103011F00296E5CF112484E15BC08437A7
:101C400009F04CC02EDE809309022BDE809308023F
:101C50008091060190910701880F991F90930701C9
:101C6000809306011EDE90910C02853411F4916080
:101C700001C09E7F90930C0214DE803209F0B7CE33
:101C800084E1F4DD00E010E0809108029091090207
:101C90000817190780F580910C0280FF0BC0F99995
:101CA000FECF809106019091070192BD81BDF89A07
:101CB00080B507C081FD06C0E0910601F0910701E3
:101CC0008491D4DD80910601909107010196909353
:101CD0000701809306010F5F1F4FD6CF853771F440
:101CE000E0DD803271F484E1C1DD8EE1BFDD83E9A6
:101CF000BDDD8AE0BBDD80E1B9DD79CE863709F450
:101D0000D8CE809104018F5F80930401853009F063
:101D10006ECEE0910201F0910301099568CEF8942E
:021D2000FFCFF3
:021D220080003F
:0400000300001800E1
:00000001FF
